:100000001BC090C032C031C030C02FC02EC02DC028
:100010002CC02BC02AC029C028C03CC026C025C087
:1000200024C023C022C000FC60DAF266B6BEE0FE47
:10003000E6EE3E9C7A9E8E0A11241FBECFEDCDBF08
:1000400010E0A0E6B0E0E8ECF7E002C005900D9209
:10005000A836B107D9F720E0A8E6B0E001C01D92AC
:10006000AD36B207E1F7E1D0ADC3CACFF89484E36F
:1000700086BF82E080BF88B7816088BF81E089BF8A
:1000800084E083BF8BB780648BBF85B7836085BFF7
:10009000789408951F920F920FB60F9211242F9308
:1000A0003F934F935F936F937F938F939F93AF9300
:1000B000BF93EF93FF93C4D1813099F058F0823011
:1000C000C1F46091680062FB442740F963FB662736
:1000D00060F911C06091680064FB442740F96170C9
:1000E0000AC06091680065FB442740F9669561701D
:1000F00002C040E060E0E82FF0E0E05AFF4F80816E
:100100008ED1FF91EF91BF91AF919F918F917F9190
:100110006F915F914F913F912F910F900FBE0F9074
:100120001F9018951F920F920FB60F9211242F93C4
:100130003F934F935F936F937F938F939F93AF936F
:10014000BF93EF93FF9368D1811105C08091680040
:1001500080648093680060D1813029F480916800C8
:10016000806880936800FF91EF91BF91AF919F915C
:100170008F917F916F915F914F913F912F910F9050
:100180000FBE0F901F9018950F931F93CF93DF937F
:100190009C0184E0E0E6F0E0DF011D928A95E9F73A
:1001A000C90137FF04C088279927821B930BE0E61B
:1001B000F0E0C3E6D0E00AE010E0B801AFD28F5F14
:1001C0008193CB01009719F0CE17DF07B1F780912B
:1001D000680037FF02C0806101C08F7E8093680095
:1001E0008091600090916200909360008093620023
:1001F00010926300DF91CF911F910F910895BC0180
:100200009C0129513C4F909168002F3C374020F4CD
:1002100090629093680007C09F7D90936800CB0127
:100220006AE070E07BD2CB01AFCFCF93DF9300D0F9
:10023000CDB7DD2780E090E0A4D290936B0080934F
:100240006A00E199FECF98E288E10FB6F894A8958C
:1002500081BD0FBE91BDD6D009DF1A82198220E67A
:1002600044E660E080E090E09AD180E090E051D1F7
:100270008111AFC080916800877F809368002FEF65
:1002800084E39CE0215080409040E1F700C00000F2
:1002900080916800886080936800982F907C903CE3
:1002A000E9F410926B0010926A00846080936800F9
:1002B00060E070E080E090E067D2E199FECF2FE748
:1002C0008AE196E0215080409040E1F700C00000B4
:1002D000809168008B778F7B8093680080916800A5
:1002E000807C803819F580916A0090916B006AE0FB
:1002F00070E003D297FD0F9634E0959587953A9577
:10030000E1F77DDF809168008260809368002FEFC5
:1003100089E698E1215080409040E1F700C000005C
:10032000809168008D778F7B809368008091680052
:10033000982F907C903421F48E778F7B8093680087
:10034000809169008F5F809369008C33D8F080E0E2
:1003500090E017D260916A0070916B008617970742
:1003600078F48091680084608093680080E090E079
:100370000BD2E199FECF809168008B7F809368005B
:1003800010926900BE016F5F7F4F80E090E024D142
:1003900081111FC089819A8120916A0030916B0080
:1003A000281739074CF490936B0080936A002091D2
:1003B00068002160209368006AE070E09ED197FD9C
:1003C0000F9624E0959587952A95E1F718DFA89573
:1003D0004CCF9FE09093600091E1909361008F5F1C
:1003E000809362002FEF83ED90E321508040904096
:1003F000E1F700C0000080E090E0CE5FCDBFDF916C
:10040000CF9108959FEF97BB81B3886781BB98BB5D
:1004100082B3886782BB089580916C000895E82FAD
:10042000F0E0EA5DFF4FE4916111E160442311F0D7
:10043000969801C0969AE095E8BB00C000C0089568
:100440008FEF88BBE0916C0022B3F0E0EC59FF4FD6
:1004500081E090E0008002C0880F991F0A94E2F7C3
:10046000822B82BB80916C00823030F480916C00D2
:100470008F5F80936C0002C010926C00E0916C0062
:1004800022B3F0E0EC59FF4F81E090E0008002C021
:10049000880F991F0A94E2F780959095822382BB7A
:1004A00080916C000895582FFC0180E07CE89E2F1D
:1004B000951B961788F4419198E0A82FA427282F20
:1004C00030E035952795822FA0FF02C0872F822725
:1004D0004695915091F7EBCF08950F931F93CF93CB
:1004E000DF93009731F48CECDF91CF911F910F9146
:1004F000B9C0EC0185E5B6D08E01085F1F4F899128
:10050000B1D0C017D107D9F7DF91CF911F910F91CB
:100510000895CF93DF93EC0184D0813029F0CE0190
:10052000DCDF84E49FD080E0DF91CF910895EF92EB
:10053000FF920F931F93CF93DF938C01EB0171D048
:10054000813031F1C801C9DF8EEB8CD08E017E0184
:1005500089E0E80EF11CADD0F80181938F01EE1512
:10056000FF05C9F7288139814A815B816C817D81D2
:100570008E819F81A0E0E5D041F068E0CE0193DF5D
:100580009885891304C080E003C083E001C082E045
:10059000DF91CF911F910F91FF90EF900895EF920F
:1005A000FF921F93CF93DF937C01162FD42FC22F7E
:1005B00038D0813059F0C70190DF8EE453D0812FBD
:1005C00051D08D2F4FD08C2F4DD080E0DF91CF9127
:1005D0001F91FF90EF9008950F931F93CF93DF9398
:1005E000CDB7DD27C950CDBF8B01BE016F5F7F4FF7
:1005F0009EDF882321F0F801118210820BC08A81CE
:1006000090E0982F88272981820F911DF80191830E
:10061000808380E0C75FCDBFDF91CF911F910F91A5
:1006200008959FB7F894899A9198E7E5F2E0319799
:10063000F1F700C000008898919AF5E8FA95F1F773
:10064000000080B3E7ECF0E03197F1F700C0000064
:10065000919AE7E5F2E03197F1F700C000009FBF03
:10066000817008955FB7F89428E030E091E0482F5A
:1006700049236FB7F8949198442329F07DE07A9547
:10068000F1F7000004C07AE67A95F1F700C0919A7C
:10069000442321F04AE64A95F1F703C076E07A95C3
:1006A000F1F700C06FBF990F2150310901F75FBF0B
:1006B00008954FB7F894E8E0F0E031E020E09FB70C
:1006C000F89491985AE05A95F1F700C08898919A59
:1006D0008AE08A95F1F700C080B350E55A95F1F7AA
:1006E0009FBF632F70E0817090E007D0282B330FFD
:1006F000319729F74FBF822F08950024552704C052
:10070000080E591F880F991F009729F07695679555
:10071000B8F37105B9F7802D952F089597FB072E33
:1007200016F4009406D077FD08D017D007FC05D04A
:100730003EF4909581959F4F0895709561957F4FF8
:1007400008950024A7FD00942A17300540055005A0
:1007500060057005800590050895AA1BBB1B51E13B
:1007600007C0AA1FBB1FA617B70710F0A61BB70B21
:10077000881F991F5A95A9F780959095BC01CD01C6
:100780000895A8E142E005C010D0272F0FC0A82F80
:10079000862FE82FE199FECF05C0EEBBE09AE395E6
:1007A0000DB20D924150C8F70895262FE199FECF62
:1007B0001CBA8EBB2DBB0FB6F894E29AE19A0FBE1D
:0807C00001960895F894FFCFA3
:0807C8001011040005040300F8
:00000001FF
